{
  "_format": "hh-sol-artifact-1",
  "contractName": "Cryptang",
  "sourceName": "contracts/cryptang.sol",
  "abi": [
    {
      "inputs": [
        {
          "internalType": "string",
          "name": "initMessage",
          "type": "string"
        }
      ],
      "stateMutability": "nonpayable",
      "type": "constructor"
    },
    {
      "anonymous": false,
      "inputs": [
        {
          "indexed": true,
          "internalType": "address",
          "name": "recipient",
          "type": "address"
        },
        {
          "indexed": false,
          "internalType": "uint256",
          "name": "amount",
          "type": "uint256"
        },
        {
          "indexed": true,
          "internalType": "bytes32",
          "name": "txHash",
          "type": "bytes32"
        }
      ],
      "name": "EtherTransferred",
      "type": "event"
    },
    {
      "anonymous": false,
      "inputs": [
        {
          "indexed": false,
          "internalType": "string",
          "name": "oldStr",
          "type": "string"
        },
        {
          "indexed": false,
          "internalType": "string",
          "name": "newStr",
          "type": "string"
        }
      ],
      "name": "UpdatedMessages",
      "type": "event"
    },
    {
      "inputs": [],
      "name": "message",
      "outputs": [
        {
          "internalType": "string",
          "name": "",
          "type": "string"
        }
      ],
      "stateMutability": "view",
      "type": "function"
    },
    {
      "inputs": [
        {
          "internalType": "address payable",
          "name": "recipient",
          "type": "address"
        }
      ],
      "name": "transferEther",
      "outputs": [],
      "stateMutability": "payable",
      "type": "function"
    },
    {
      "inputs": [
        {
          "internalType": "string",
          "name": "newMessage",
          "type": "string"
        }
      ],
      "name": "update",
      "outputs": [],
      "stateMutability": "nonpayable",
      "type": "function"
    }
  ],
  "bytecode": "0x60806040523480156200001157600080fd5b5060405162001029380380620010298339818101604052810190620000379190620001e3565b80600090816200004891906200047f565b505062000566565b6000604051905090565b600080fd5b600080fd5b600080fd5b600080fd5b6000601f19601f8301169050919050565b7f4e487b7100000000000000000000000000000000000000000000000000000000600052604160045260246000fd5b620000b9826200006e565b810181811067ffffffffffffffff82111715620000db57620000da6200007f565b5b80604052505050565b6000620000f062000050565b9050620000fe8282620000ae565b919050565b600067ffffffffffffffff8211156200012157620001206200007f565b5b6200012c826200006e565b9050602081019050919050565b60005b83811015620001595780820151818401526020810190506200013c565b60008484015250505050565b60006200017c620001768462000103565b620000e4565b9050828152602081018484840111156200019b576200019a62000069565b5b620001a884828562000139565b509392505050565b600082601f830112620001c857620001c762000064565b5b8151620001da84826020860162000165565b91505092915050565b600060208284031215620001fc57620001fb6200005a565b5b600082015167ffffffffffffffff8111156200021d576200021c6200005f565b5b6200022b84828501620001b0565b91505092915050565b600081519050919050565b7f4e487b7100000000000000000000000000000000000000000000000000000000600052602260045260246000fd5b600060028204905060018216806200028757607f821691505b6020821081036200029d576200029c6200023f565b5b50919050565b60008190508160005260206000209050919050565b60006020601f8301049050919050565b600082821b905092915050565b600060088302620003077fffffffffffffffffffffffffffffffffffffffffffffffffffffffffffffffff82620002c8565b620003138683620002c8565b95508019841693508086168417925050509392505050565b6000819050919050565b6000819050919050565b6000620003606200035a62000354846200032b565b62000335565b6200032b565b9050919050565b6000819050919050565b6200037c836200033f565b620003946200038b8262000367565b848454620002d5565b825550505050565b600090565b620003ab6200039c565b620003b881848462000371565b505050565b5b81811015620003e057620003d4600082620003a1565b600181019050620003be565b5050565b601f8211156200042f57620003f981620002a3565b6200040484620002b8565b8101602085101562000414578190505b6200042c6200042385620002b8565b830182620003bd565b50505b505050565b600082821c905092915050565b6000620004546000198460080262000434565b1980831691505092915050565b60006200046f838362000441565b9150826002028217905092915050565b6200048a8262000234565b67ffffffffffffffff811115620004a657620004a56200007f565b5b620004b282546200026e565b620004bf828285620003e4565b600060209050601f831160018114620004f75760008415620004e2578287015190505b620004ee858262000461565b8655506200055e565b601f1984166200050786620002a3565b60005b8281101562000531578489015182556001820191506020850194506020810190506200050a565b868310156200055157848901516200054d601f89168262000441565b8355505b6001600288020188555050505b505050505050565b610ab380620005766000396000f3fe6080604052600436106100345760003560e01c80633d7403a3146100395780636b55e99114610062578063e21f37ce1461007e575b600080fd5b34801561004557600080fd5b50610060600480360381019061005b9190610472565b6100a9565b005b61007c60048036038101906100779190610519565b610184565b005b34801561008a57600080fd5b5061009361028a565b6040516100a091906105c5565b60405180910390f35b60008080546100b790610616565b80601f01602080910402602001604051908101604052809291908181526020018280546100e390610616565b80156101305780601f1061010557610100808354040283529160200191610130565b820191906000526020600020905b81548152906001019060200180831161011357829003601f168201915b50505050509050816000908161014691906107fd565b507ff91d506d7335e83e4869a58cd98e0557cdcef6f507ba1e52725521305626d05b81836040516101789291906108cf565b60405180910390a15050565b600034116101c7576040517f08c379a00000000000000000000000000000000000000000000000000000000081526004016101be90610952565b60405180910390fd5b8073ffffffffffffffffffffffffffffffffffffffff166108fc349081150290604051600060405180830381858888f1935050505015801561020d573d6000803e3d6000fd5b5033813460405160200161022393929190610a16565b604051602081830303815290604052805190602001208173ffffffffffffffffffffffffffffffffffffffff167f0dfca9a6670146f0b210ef06edecb5b30be734a730f66ec9a45b86052b2fb7a23460405161027f9190610a62565b60405180910390a350565b6000805461029790610616565b80601f01602080910402602001604051908101604052809291908181526020018280546102c390610616565b80156103105780601f106102e557610100808354040283529160200191610310565b820191906000526020600020905b8154815290600101906020018083116102f357829003601f168201915b505050505081565b6000604051905090565b600080fd5b600080fd5b600080fd5b600080fd5b6000601f19601f8301169050919050565b7f4e487b7100000000000000000000000000000000000000000000000000000000600052604160045260246000fd5b61037f82610336565b810181811067ffffffffffffffff8211171561039e5761039d610347565b5b80604052505050565b60006103b1610318565b90506103bd8282610376565b919050565b600067ffffffffffffffff8211156103dd576103dc610347565b5b6103e682610336565b9050602081019050919050565b82818337600083830152505050565b6000610415610410846103c2565b6103a7565b90508281526020810184848401111561043157610430610331565b5b61043c8482856103f3565b509392505050565b600082601f8301126104595761045861032c565b5b8135610469848260208601610402565b91505092915050565b60006020828403121561048857610487610322565b5b600082013567ffffffffffffffff8111156104a6576104a5610327565b5b6104b284828501610444565b91505092915050565b600073ffffffffffffffffffffffffffffffffffffffff82169050919050565b60006104e6826104bb565b9050919050565b6104f6816104db565b811461050157600080fd5b50565b600081359050610513816104ed565b92915050565b60006020828403121561052f5761052e610322565b5b600061053d84828501610504565b91505092915050565b600081519050919050565b600082825260208201905092915050565b60005b83811015610580578082015181840152602081019050610565565b60008484015250505050565b600061059782610546565b6105a18185610551565b93506105b1818560208601610562565b6105ba81610336565b840191505092915050565b600060208201905081810360008301526105df818461058c565b905092915050565b7f4e487b7100000000000000000000000000000000000000000000000000000000600052602260045260246000fd5b6000600282049050600182168061062e57607f821691505b602082108103610641576106406105e7565b5b50919050565b60008190508160005260206000209050919050565b60006020601f8301049050919050565b600082821b905092915050565b6000600883026106a97fffffffffffffffffffffffffffffffffffffffffffffffffffffffffffffffff8261066c565b6106b3868361066c565b95508019841693508086168417925050509392505050565b6000819050919050565b6000819050919050565b60006106fa6106f56106f0846106cb565b6106d5565b6106cb565b9050919050565b6000819050919050565b610714836106df565b61072861072082610701565b848454610679565b825550505050565b600090565b61073d610730565b61074881848461070b565b505050565b5b8181101561076c57610761600082610735565b60018101905061074e565b5050565b601f8211156107b15761078281610647565b61078b8461065c565b8101602085101561079a578190505b6107ae6107a68561065c565b83018261074d565b50505b505050565b600082821c905092915050565b60006107d4600019846008026107b6565b1980831691505092915050565b60006107ed83836107c3565b9150826002028217905092915050565b61080682610546565b67ffffffffffffffff81111561081f5761081e610347565b5b6108298254610616565b610834828285610770565b600060209050601f8311600181146108675760008415610855578287015190505b61085f85826107e1565b8655506108c7565b601f19841661087586610647565b60005b8281101561089d57848901518255600182019150602085019450602081019050610878565b868310156108ba57848901516108b6601f8916826107c3565b8355505b6001600288020188555050505b505050505050565b600060408201905081810360008301526108e9818561058c565b905081810360208301526108fd818461058c565b90509392505050565b7f416d6f756e74206d7573742062652067726561746572207468616e2030000000600082015250565b600061093c601d83610551565b915061094782610906565b602082019050919050565b6000602082019050818103600083015261096b8161092f565b9050919050565b600061097d826104bb565b9050919050565b60008160601b9050919050565b600061099c82610984565b9050919050565b60006109ae82610991565b9050919050565b6109c66109c182610972565b6109a3565b82525050565b60006109d782610991565b9050919050565b6109ef6109ea826104db565b6109cc565b82525050565b6000819050919050565b610a10610a0b826106cb565b6109f5565b82525050565b6000610a2282866109b5565b601482019150610a3282856109de565b601482019150610a4282846109ff565b602082019150819050949350505050565b610a5c816106cb565b82525050565b6000602082019050610a776000830184610a53565b9291505056fea26469706673582212206a58f9407ad2b160b8886345927c9dc3380cd8cdb1079ae56e2576317684c63564736f6c63430008180033",
  "linkReferences": {},
  "deployedLinkReferences": {}
}